{
  "contractName": "LendingClub",
  "abi": [
    {
      "constant": true,
      "inputs": [],
      "name": "numParticipantsPayed",
      "outputs": [
        {
          "name": "",
          "type": "uint256"
        }
      ],
      "payable": false,
      "stateMutability": "view",
      "type": "function"
    },
    {
      "constant": true,
      "inputs": [
        {
          "name": "",
          "type": "uint256"
        }
      ],
      "name": "potentialWinners",
      "outputs": [
        {
          "name": "",
          "type": "address"
        }
      ],
      "payable": false,
      "stateMutability": "view",
      "type": "function"
    },
    {
      "constant": true,
      "inputs": [],
      "name": "amountPerPerson",
      "outputs": [
        {
          "name": "",
          "type": "uint256"
        }
      ],
      "payable": false,
      "stateMutability": "view",
      "type": "function"
    },
    {
      "constant": true,
      "inputs": [
        {
          "name": "",
          "type": "address"
        }
      ],
      "name": "amountPayed",
      "outputs": [
        {
          "name": "",
          "type": "uint256"
        }
      ],
      "payable": false,
      "stateMutability": "view",
      "type": "function"
    },
    {
      "constant": true,
      "inputs": [
        {
          "name": "",
          "type": "uint256"
        }
      ],
      "name": "contractParticipants",
      "outputs": [
        {
          "name": "",
          "type": "address"
        }
      ],
      "payable": false,
      "stateMutability": "view",
      "type": "function"
    },
    {
      "constant": true,
      "inputs": [],
      "name": "payoutOverTime",
      "outputs": [
        {
          "name": "",
          "type": "bool"
        }
      ],
      "payable": false,
      "stateMutability": "view",
      "type": "function"
    },
    {
      "constant": true,
      "inputs": [],
      "name": "timeLimit",
      "outputs": [
        {
          "name": "",
          "type": "uint256"
        }
      ],
      "payable": false,
      "stateMutability": "view",
      "type": "function"
    },
    {
      "anonymous": false,
      "inputs": [
        {
          "indexed": true,
          "name": "_withdrawer",
          "type": "address"
        },
        {
          "indexed": true,
          "name": "_amount",
          "type": "uint256"
        }
      ],
      "name": "withdrawBackEvent",
      "type": "event"
    },
    {
      "anonymous": false,
      "inputs": [
        {
          "indexed": true,
          "name": "_sender",
          "type": "address"
        },
        {
          "indexed": true,
          "name": "_amount",
          "type": "uint256"
        }
      ],
      "name": "participantPayedEvent",
      "type": "event"
    },
    {
      "anonymous": false,
      "inputs": [
        {
          "indexed": true,
          "name": "_winner",
          "type": "address"
        },
        {
          "indexed": true,
          "name": "_winnerId",
          "type": "uint256"
        }
      ],
      "name": "participantWonEvent",
      "type": "event"
    },
    {
      "constant": false,
      "inputs": [
        {
          "name": "_participants",
          "type": "address[]"
        },
        {
          "name": "_amountPerPersonInWei",
          "type": "uint256"
        },
        {
          "name": "_timeLimitInSeconds",
          "type": "uint256"
        }
      ],
      "name": "setContractDetails",
      "outputs": [],
      "payable": false,
      "stateMutability": "nonpayable",
      "type": "function"
    },
    {
      "constant": false,
      "inputs": [],
      "name": "deposit",
      "outputs": [],
      "payable": true,
      "stateMutability": "payable",
      "type": "function"
    },
    {
      "constant": false,
      "inputs": [],
      "name": "initializePayoutProcess",
      "outputs": [],
      "payable": false,
      "stateMutability": "nonpayable",
      "type": "function"
    },
    {
      "constant": true,
      "inputs": [],
      "name": "getParticipantsCount",
      "outputs": [
        {
          "name": "count",
          "type": "uint256"
        }
      ],
      "payable": false,
      "stateMutability": "view",
      "type": "function"
    },
    {
      "constant": true,
      "inputs": [],
      "name": "getPotentialWinnersCount",
      "outputs": [
        {
          "name": "count",
          "type": "uint256"
        }
      ],
      "payable": false,
      "stateMutability": "view",
      "type": "function"
    },
    {
      "constant": true,
      "inputs": [
        {
          "name": "s",
          "type": "string"
        }
      ],
      "name": "stringToUint",
      "outputs": [
        {
          "name": "result",
          "type": "uint256"
        }
      ],
      "payable": false,
      "stateMutability": "view",
      "type": "function"
    },
    {
      "constant": false,
      "inputs": [
        {
          "name": "_participantAddress",
          "type": "address"
        }
      ],
      "name": "withdrawBack",
      "outputs": [],
      "payable": false,
      "stateMutability": "nonpayable",
      "type": "function"
    }
  ],
  "bytecode": "0x608060405234801561001057600080fd5b50610e06806100206000396000f3006080604052600436106100d0576000357c0100000000000000000000000000000000000000000000000000000000900463ffffffff16806310aa537c146100d55780631af08b05146101005780631af5b63c1461016d5780631bd9515514610198578063226ce61414610215578063409779d71461026c57806342a1aa0c146102d9578063ba48f18214610353578063bbfb15601461036a578063be31869b14610395578063c08d1fe5146103c4578063cabfaa18146103ef578063d0e30db01461041a578063e2a5a17b14610424575b600080fd5b3480156100e157600080fd5b506100ea610467565b6040518082815260200191505060405180910390f35b34801561010c57600080fd5b5061012b6004803603810190808035906020019092919050505061046d565b604051808273ffffffffffffffffffffffffffffffffffffffff1673ffffffffffffffffffffffffffffffffffffffff16815260200191505060405180910390f35b34801561017957600080fd5b506101826104ab565b6040518082815260200191505060405180910390f35b3480156101a457600080fd5b506101ff600480360381019080803590602001908201803590602001908080601f01602080910402602001604051908101604052809392919081815260200183838082843782019150505050505091929192905050506104b1565b6040518082815260200191505060405180910390f35b34801561022157600080fd5b50610256600480360381019080803573ffffffffffffffffffffffffffffffffffffffff169060200190929190505050610583565b6040518082815260200191505060405180910390f35b34801561027857600080fd5b506102976004803603810190808035906020019092919050505061059b565b604051808273ffffffffffffffffffffffffffffffffffffffff1673ffffffffffffffffffffffffffffffffffffffff16815260200191505060405180910390f35b3480156102e557600080fd5b506103516004803603810190808035906020019082018035906020019080806020026020016040519081016040528093929190818152602001838360200280828437820191505050505050919291929080359060200190929190803590602001909291905050506105d9565b005b34801561035f57600080fd5b50610368610640565b005b34801561037657600080fd5b5061037f61071c565b6040518082815260200191505060405180910390f35b3480156103a157600080fd5b506103aa610729565b604051808215151515815260200191505060405180910390f35b3480156103d057600080fd5b506103d961073b565b6040518082815260200191505060405180910390f35b3480156103fb57600080fd5b50610404610741565b6040518082815260200191505060405180910390f35b61042261074e565b005b34801561043057600080fd5b50610465600480360381019080803573ffffffffffffffffffffffffffffffffffffffff1690602001909291905050506107fb565b005b60035481565b60058181548110151561047c57fe5b906000526020600020016000915054906101000a900473ffffffffffffffffffffffffffffffffffffffff1681565b60025481565b6000606060008084925060009350600091505b825182101561057b5782828151811015156104db57fe5b9060200101517f010000000000000000000000000000000000000000000000000000000000000090047f0100000000000000000000000000000000000000000000000000000000000000027f0100000000000000000000000000000000000000000000000000000000000000900490506030811015801561055d575060398111155b1561056e5760308103600a85020193505b81806001019250506104c4565b505050919050565b60046020528060005260406000206000915090505481565b6006818154811015156105aa57fe5b906000526020600020016000915054906101000a900473ffffffffffffffffffffffffffffffffffffffff1681565b60006005805490501415156105ed57600080fd5b8260069080519060200190610603929190610cbc565b50826005908051906020019061061a929190610cbc565b50816002819055506000600381905550600081111561063b57806001819055505b505050565b60006006805490506003541015801561065e57506000600580549050115b151561066957600080fd5b600090505b600680549050811015610711576002546004600060068481548110151561069157fe5b9060005260206000200160009054906101000a900473ffffffffffffffffffffffffffffffffffffffff1673ffffffffffffffffffffffffffffffffffffffff1673ffffffffffffffffffffffffffffffffffffffff168152602001908152602001600020541015151561070457600080fd5b808060010191505061066e565b610719610935565b50565b6000600580549050905090565b6000809054906101000a900460ff1681565b60015481565b6000600680549050905090565b600254341015151561075f57600080fd5b34600460003373ffffffffffffffffffffffffffffffffffffffff1673ffffffffffffffffffffffffffffffffffffffff16815260200190815260200160002081905550600360008154809291906001019190505550343373ffffffffffffffffffffffffffffffffffffffff167f18591a32cfbdcb6e6f8c881053ec17173ef6a8ed60dc3b3543fd5667887c82e060405160405180910390a3565b600254600460008373ffffffffffffffffffffffffffffffffffffffff1673ffffffffffffffffffffffffffffffffffffffff168152602001908152602001600020541015151561084b57600080fd5b6000600460008373ffffffffffffffffffffffffffffffffffffffff1673ffffffffffffffffffffffffffffffffffffffff16815260200190815260200160002081905550600360008154809291906001900391905055508073ffffffffffffffffffffffffffffffffffffffff166108fc6002549081150290604051600060405180830381858888f193505050501580156108eb573d6000803e3d6000fd5b506002548173ffffffffffffffffffffffffffffffffffffffff167fd99eb0410afa6ce8e4408314ba52cc8b0b849cc41b05a2d7015cc51032ef752160405160405180910390a350565b600080610940610a31565b60ff16915060058281548110151561095457fe5b9060005260206000200160009054906101000a900473ffffffffffffffffffffffffffffffffffffffff1690508073ffffffffffffffffffffffffffffffffffffffff166108fc3073ffffffffffffffffffffffffffffffffffffffff16319081150290604051600060405180830381858888f193505050501580156109de573d6000803e3d6000fd5b50818173ffffffffffffffffffffffffffffffffffffffff167fb0bf86211c8ac07ba0b42ca2db361e291dff87e702dff5063ab20049d01dfcb960405160405180910390a3610a2d8183610afe565b5050565b60008060016005805490501115610af5576001600580549050039050600160058054905003424460405160200180838152602001828152602001925050506040516020818303038152906040526040518082805190602001908083835b602083101515610ab35780518252602082019150602081019050602083039250610a8e565b6001836020036101000a038019825116818451168082178552505050505050905001915050604051809103902060019004811515610aed57fe5b069150610afa565b600091505b5090565b6000610b0982610bb3565b6000600381905550600090505b600680549050811015610bae57600060046000600684815481101515610b3857fe5b9060005260206000200160009054906101000a900473ffffffffffffffffffffffffffffffffffffffff1673ffffffffffffffffffffffffffffffffffffffff1673ffffffffffffffffffffffffffffffffffffffff168152602001908152602001600020819055508080600101915050610b16565b505050565b60058054905081101515610bc657600080fd5b6005600160058054905003815481101515610bdd57fe5b9060005260206000200160009054906101000a900473ffffffffffffffffffffffffffffffffffffffff16600582815481101515610c1757fe5b9060005260206000200160006101000a81548173ffffffffffffffffffffffffffffffffffffffff021916908373ffffffffffffffffffffffffffffffffffffffff1602179055506005600160058054905003815481101515610c7657fe5b9060005260206000200160006101000a81549073ffffffffffffffffffffffffffffffffffffffff02191690556005805480919060019003610cb89190610d46565b5050565b828054828255906000526020600020908101928215610d35579160200282015b82811115610d345782518260006101000a81548173ffffffffffffffffffffffffffffffffffffffff021916908373ffffffffffffffffffffffffffffffffffffffff16021790555091602001919060010190610cdc565b5b509050610d429190610d72565b5090565b815481835581811115610d6d57818360005260206000209182019101610d6c9190610db5565b5b505050565b610db291905b80821115610dae57600081816101000a81549073ffffffffffffffffffffffffffffffffffffffff021916905550600101610d78565b5090565b90565b610dd791905b80821115610dd3576000816000905550600101610dbb565b5090565b905600a165627a7a7230582041efdfe75a3ff43da74b8a523dac0cb2a50f2681ea819279e6eb18517249b77e0029",
  "source": "pragma solidity ^0.4.0;//please import oraclizeAPI_pre0.4.sol when solidity < 0.4.0\n\n\n\n//Utilizing Safe Math and Oraclize libaries\n\n  //future features\n  //also allowing for sub amounts in the future\n  // struct Participant {\n  //   uint amountPayed;\n  //   bool hasPayed;\n  //   bool hasWon;\n  // }\n  // Participant[] public participants;\n  // enum LendingClubState { Accepting, Finished }\n  // LendingClubState state;\n  //\n\ncontract LendingClub  {\n\n  using SafeMath for uint;\n\n  //Using time constraint later\n  bool public payoutOverTime;\n  uint public timeLimit;\n\n  uint public amountPerPerson;\n  uint public numParticipantsPayed;\n  mapping(address => uint) public amountPayed;\n  address[] public potentialWinners;\n  address[] public contractParticipants;\n\n\n  // event emitted if participant pays out his share\n  event withdrawBackEvent (\n        address indexed _withdrawer,\n        uint indexed _amount\n    );\n  event participantPayedEvent(\n        address indexed _sender,\n        uint indexed _amount\n  );\n  event participantWonEvent(\n        address indexed _winner,\n        uint indexed _winnerId\n  );\n\n  //initialized after each round with all the addresses participating, amount to pay and time\n  //another arg uint timeInSeconds\n  function setContractDetails (address[] _participants, uint _amountPerPersonInWei,  uint _timeLimitInSeconds ) public {\n    require(potentialWinners.length == 0 );\n    // state = LendingClubState.Accepting;\n    contractParticipants = _participants;\n    potentialWinners = _participants;\n    amountPerPerson = _amountPerPersonInWei;\n    numParticipantsPayed = 0;\n    if(_timeLimitInSeconds > 0){\n      timeLimit = _timeLimitInSeconds;\n    }\n  }\n\n  //this function is called by each address that is participating\n  //requires everyone to pay it amount y every x time\n  function deposit() public payable {\n    // should also require that msg.owner is part of contractParticipants\n    require(msg.value >= amountPerPerson);\n    amountPayed[msg.sender] = msg.value;\n    numParticipantsPayed++;\n    emit participantPayedEvent(msg.sender,msg.value);\n  }\n\n  //should require multi sig here as well\n  function initializePayoutProcess() public {\n    // could double checking with for loop if everyone payed the correct ammount\n    // require(numParticipantsPayed * amountPerPerson >= this.balance)\n    //require(payoutOverTime >= now);\n    require(numParticipantsPayed >= contractParticipants.length && potentialWinners.length > 0);\n    for(uint i= 0; i < contractParticipants.length; i++){\n      require(amountPayed[contractParticipants[i]] >= amountPerPerson);\n    }\n    withdrawToRandomParticipant();\n  }\n\n  // Pseudo randomness implementtion should not be used in production!\n  // Explanation: Current block.difficulty and block.timestamp are being hashed and encoded as a number.\n  // After encoding 256 bit hash to 256 bit integer, we are taking reminder by dividing 251,\n  // to get an integer in a range from [0, 250]. In our case 251 is prime number\n  // Note  Hashing is not important here just using it to get fixed length bits.\n  // Biggest Problem is that both block.timestamp and block.difficulty are dependend on miners!\n  function random() private view returns (uint8) {\n    if(potentialWinners.length > 1) {\n      uint num = potentialWinners.length - 1;\n      return uint8(uint256(keccak256(abi.encodePacked(block.timestamp, block.difficulty))) % (potentialWinners.length - 1));\n      //only one person left return index 0\n    } else {\n      return 0;\n    }\n\n  }\n\n  //withdrawing to the randomly selected participant\n  function withdrawToRandomParticipant() internal {\n    uint winnerIndex = random();\n    address winnerAddress = potentialWinners[winnerIndex];\n    winnerAddress.transfer(address(this).balance);\n    emit participantWonEvent(winnerAddress, winnerIndex);\n    setNewRound(winnerAddress, winnerIndex);\n  }\n\n  //decrementing rounds by removing the winner from potentialWinners Array\n  function setNewRound(address _winnerAddress, uint winnerIndex) internal {\n    removeFromPotentialWinners(winnerIndex);\n    numParticipantsPayed = 0;\n    //lets make it work with a struct\n    for(uint i = 0; i < contractParticipants.length; i++){\n      amountPayed[contractParticipants[i]] = 0;\n    }\n  }\n\n  /* HELPER FUNCTIONS*/\n\n  function getParticipantsCount() public constant returns(uint count) {\n    return contractParticipants.length;\n  }\n\n  function getPotentialWinnersCount() public constant returns(uint count) {\n    return potentialWinners.length;\n  }\n\n\n\n  function stringToUint(string s) constant returns (uint result) {\n        bytes memory b = bytes(s);\n        uint i;\n        result = 0;\n        for (i = 0; i < b.length; i++) {\n            uint c = uint(b[i]);\n            if (c >= 48 && c <= 57) {\n                result = result * 10 + (c - 48);\n            }\n        }\n    }\n\n  function removeFromPotentialWinners(uint _index) internal {\n      require(_index < potentialWinners.length);\n      potentialWinners[_index] = potentialWinners[potentialWinners.length-1];\n      delete potentialWinners[potentialWinners.length-1];\n      potentialWinners.length--;\n    }\n\n  //Withdrawing back to participant (only possible if he/she has payed the full amount )\n  function withdrawBack(address _participantAddress) public {\n    //require(_participantAddress == msg.sender);\n    require(amountPayed[_participantAddress] >= amountPerPerson);\n    amountPayed[_participantAddress] = 0;\n    numParticipantsPayed--;\n    _participantAddress.transfer(amountPerPerson);\n    emit withdrawBackEvent(_participantAddress, amountPerPerson);\n  }\n}\n//<Safe Math Libary>\n/**\n * @title SafeMath\n * @dev Math operations with safety checks that revert on error\n */\nlibrary SafeMath {\n    /**\n    * @dev Multiplies two numbers, reverts on overflow.\n    */\n    function mul(uint256 a, uint256 b) internal pure returns (uint256) {\n        // Gas optimization: this is cheaper than requiring 'a' not being zero, but the\n        // benefit is lost if 'b' is also tested.\n        // See: https://github.com/OpenZeppelin/openzeppelin-solidity/pull/522\n        if (a == 0) {\n            return 0;\n        }\n\n        uint256 c = a * b;\n        require(c / a == b);\n\n        return c;\n    }\n\n    /**\n    * @dev Integer division of two numbers truncating the quotient, reverts on division by zero.\n    */\n    function div(uint256 a, uint256 b) internal pure returns (uint256) {\n        // Solidity only automatically asserts when dividing by 0\n        require(b > 0);\n        uint256 c = a / b;\n        // assert(a == b * c + a % b); // There is no case in which this doesn't hold\n\n        return c;\n    }\n\n    /**\n    * @dev Subtracts two numbers, reverts on overflow (i.e. if subtrahend is greater than minuend).\n    */\n    function sub(uint256 a, uint256 b) internal pure returns (uint256) {\n        require(b <= a);\n        uint256 c = a - b;\n\n        return c;\n    }\n\n    /**\n    * @dev Adds two numbers, reverts on overflow.\n    */\n    function add(uint256 a, uint256 b) internal pure returns (uint256) {\n        uint256 c = a + b;\n        require(c >= a);\n\n        return c;\n    }\n\n    /**\n    * @dev Divides two numbers and returns the remainder (unsigned integer modulo),\n    * reverts when dividing by zero.\n    */\n    function mod(uint256 a, uint256 b) internal pure returns (uint256) {\n        require(b != 0);\n        return a % b;\n    }\n}\n\n\n\n// </Safe Math Libary>\n",
  "sourcePath": "/home/markus/Documents/Programming/smartEscrow/lendingClub/contracts/LendingClub.sol",
  "compiler": {
    "name": "solc",
    "version": "0.4.24+commit.e67f0147.Emscripten.clang"
  },
  "schemaVersion": "2.0.1",
  "updatedAt": "2018-12-21T16:11:00.091Z"
}